:100000000C942A000C9447000C9447000C94470071
:100010000C9447000C9447000C9447000C94470044
:100020000C9447000C9447000C9423070C944C0745
:100030000C9447000C9447000C9447000C94470024
:100040000C9447000C9447000C9447000C94470014
:100050000C94470011241FBECFE5D8E0DEBFCDBF12
:1000600011E0A0E6B0E0E4EFFFE002C005900D92E1
:10007000A633B107D9F721E0A6E3B1E001C01D9294
:10008000A83BB207E1F70E9475070C94F8070C949F
:10009000000041E062E083E00E94B50541E063E0DA
:1000A00083E00E94B50541E064E083E00E94B5056D
:1000B00041E065E083E00C94B50547E066E083E04D
:1000C0000E94470362E083E00E94AB0563E083E0A7
:1000D0000E94AB0564E083E00E94AB0565E083E02D
:1000E0000E94AB050C944900CF930E949B03C82F3C
:1000F0008F3F11F1809164008C17F1F0C13301F54D
:1001000010923701109236010E94490021E047E029
:1001100066E083E00E94250360E080E00E94010524
:100120008CE890E00E94EC0460E081E00E94010510
:100130008DE990E00E94EC04C0936400CF91089593
:10014000C23399F410923701109236010E9449008F
:1001500022E047E066E083E00E94250360E080E063
:100160000E9401058EEA90E0DDCFC33399F410922E
:100170003701109236010E94490020E047E066E016
:1001800083E00E94250360E080E00E9401058FEB80
:1001900090E0C8CFC43381F681E090E090933701BE
:1001A000809336010E946E026F5F7F4F8F4F9F4F8B
:1001B000609360007093610080936200909363008D
:1001C00060E080E00E94010580ED90E00E94EC0478
:1001D00060E081E00E94010581EE90E0ABCF80916C
:1001E000360190913701019709F04DC020916000D0
:1001F0003091610040916200509163006DE67EE4B1
:1002000086EC91E40E94AC07DC01CB01875C9F4C3B
:10021000AF4FBF4F8093600090936100A093620046
:10022000B093630041E062E080FF1EC083E00E9463
:10023000AE058091600041E063E081FF19C083E07A
:100240000E94AE058091600041E064E082FF14C02E
:1002500083E00E94AE058091600041E065E083FF8D
:100260000FC083E00C94AE0583E00E94B505E1CF9A
:1002700083E00E94B505E6CF83E00E94B505EBCF91
:1002800083E00C94B505089580E00E94C10560E00C
:1002900083E00E94110361E083E00E94AB0540E02F
:1002A00061E080E00E94C40560E080E00E940105FA
:1002B00082EF90E00E94EC0460E081E00E94010582
:1002C0008DE990E00C94EC04CF93809140019091E3
:1002D0004101892BB9F40E949B03C82F8F3F81F005
:1002E000809165008C1761F0C33471F410923B016A
:1002F00060E081E00E9401058DE990E00E94EC043D
:10030000C0936500CF91089580ED8C0F8A30C0F7BF
:1003100060913B016430A0F7E62FF0E0E45CFE4F13
:10032000C08381E00E9401058AE20E94D604809188
:100330003B018F5F80933B01843010F390913C012F
:1003400080913D01823319F481E0913309F080E01E
:1003500090913E01933309F080E090913F019433F6
:1003600099F4813089F48093390181E090E0909391
:1003700041018093400160E080E00E94010583E03C
:1003800091E00E94EC04B4CF40913A014F5F40935A
:100390003A0161E080E00E94C40580913A01843016
:1003A000E8F082E090E0909341018093400160E0AA
:1003B00083E00E941F0360E080E00E94010584E169
:1003C00091E00E94EC0460E081E00E9401058DE96B
:1003D00090E00E94EC0410923B0192CF60E080E03C
:1003E0000E94010585E291E0ECCF8091400190915F
:1003F0004101029791F48091380141E061E081115F
:1004000007C083E00E94AE0581E080933801089523
:1004100083E00E94B505109238010895809139015A
:10042000089581E020914001309141012230310551
:1004300009F080E008958091B0019091B101A09100
:10044000B201B091B3010196A11DB11D8093B0011D
:100450009093B101A093B201B093B3010895CF93EB
:10046000DF93CDB7DEB72B970FB6F894DEBF0FBE84
:10047000CDBF83E090E09A83898388E090E09C83FD
:100480008B831E821D8218861F8281E090E09A87EE
:1004900089878CE78B878BE192E00E941E07CE0153
:1004A00001960E94EA06E2E4F1E0118210821282D3
:1004B0001382148215821682178210861186128684
:1004C0003B9681E0E03BF80781F72B960FB6F89456
:1004D000DEBF0FBECDBFDF91CF9108952FB78FB78D
:1004E0008F778FBF6091B0017091B1018091B2019F
:1004F0009091B3012FBF08958F929F92AF92BF92B8
:10050000CF92DF92EF92FF924B015C0169017A0179
:100510000E946E02681979098A099B0921E06C150D
:100520007D058E059F0508F420E0822FFF90EF9057
:10053000DF90CF90BF90AF909F908F9008958F9253
:100540009F92AF92BF92EF92FF920F931F93CF9320
:10055000DF937C014A015B01C2E4D1E08FEF10E040
:1005600001E09A85911120C0F982E8828A829B82FB
:10057000AC82BD820E946E026E837F8388879987DA
:100580000A87812F91E01F5F1A3019F02B9699236B
:1005900041F3DF91CF911F910F91FF90EF90BF90AA
:1005A000AF909F908F90089590E0EDCF8F929F92A3
:1005B000AF92BF92CF92DF92EF92FF92CF93DF93F1
:1005C000C2E4D1E08A858130E1F4CA80DB80EC802E
:1005D000FD808E809F80A884B9840E946E02681975
:1005E00079098A099B096C157D058E059F0548F0E0
:1005F0000E946E026E837F8388879987E881F981E4
:1006000009952B9681E0C03BD807E1F6DF91CF91A9
:10061000FF90EF90DF90CF90BF90AF909F908F9022
:100620000895CF93DF93C82FD62F41E00E94D905BC
:1006300040E06D2F8C2FDF91CF910C94260641E086
:100640000C94260640E00C942606CF93DF93C82F27
:10065000D42F40E0222319F0213059F441E08C2FAF
:100660000E94260640E06D2F8C2FDF91CF910C94D5
:10067000260640E0223019F0233031F441E08C2F7F
:100680000E94260641E0EFCFDF91CF9108951F939E
:10069000CF93DF93C82FD62F142F41E00E94D905A6
:1006A00041E0612F8C2F0E94D90520E0412F6D2F52
:1006B0008C2FDF91CF911F910C942503EF92FF9225
:1006C0000F931F93CF93DF93CEE7D0E09AE7E92E05
:1006D00090E0F92E0991F70111917F0141E0602F1F
:1006E000812F0E94D90541E0602F812F0E942606AC
:1006F000F0E0C238DF0771F7C6E7D0E08AE7E82EFE
:1007000080E0F82E0991F70111917F0140E0602F00
:10071000812F0E94D90541E0602F812F0E9426067B
:10072000F0E0CA37DF0771F7DF91CF911F910F918A
:10073000FF90EF9008953F924F925F926F927F9259
:100740008F929F92AF92BF92CF92DF92EF92FF92E1
:100750000F931F93CF93DF931F92CDB7DEB72EE792
:10076000E22E20E0F22E3AE7632E30E0732E46E6CA
:10077000C42E40E0D42E33243A94F70141907F01F7
:10078000F30151903F0140E0642D852D0E94260623
:1007900086E7882E80E0982E9AE7A92E90E0B92E61
:1007A00001E010E0F40161914F01AE014F5F5F4F36
:1007B000F50181915F010E9473068981811105C055
:1007C000F8013197EC0DFD1D30800F5F1F4F053094
:1007D000110541F741E0642D852D0E942606F4E0C5
:1007E000CF0ED11C82E8E81680E0F80631F6832DA2
:1007F0000F90DF91CF911F910F91FF90EF90DF90BD
:10080000CF90BF90AF909F908F907F906F905F90B0
:100810004F903F900895CF93C82F482F417063E0C9
:1008200082E00E942606C1FB442740F964E082E092
:100830000E942606C2FB442740F965E082E00E9440
:1008400026064C2F46954695469566E082E00E9426
:10085000260641E062E082E00E9426068FEC97E0E7
:100860000197F1F700C0000040E062E082E00E94E2
:1008700026068FEC97E00197F1F700C00000CF91BA
:100880000895CF93C82F40E060E082E00E942606E2
:1008900040E061E082E00E9426068C2F82958F70F6
:1008A0000E940B048C2F8F70CF910C940B0441E0AD
:1008B00060E082E00E94D90541E061E082E00E94B0
:1008C000D90541E062E082E00E94D90541E063E0A1
:1008D00082E00E94D90541E064E082E00E94D905EF
:1008E00041E065E082E00E94D90541E066E082E0F7
:1008F0000E94D90540E060E082E00E94260640E0C8
:1009000061E082E00E9426062FEB8AED90E0215004
:1009100080409040E1F700C0000083E00E940B049B
:100920008FE097E20197F1F700C0000083E00E949A
:100930000B048FEC97E00197F1F700C0000083E013
:100940000E940B048FEC97E00197F1F700C00000C4
:1009500082E00E940B048FEC97E00197F1F700C052
:10096000000088E20E9441048FEC97E00197F1F7C4
:1009700000C000008FE00E9441048FEC97E00197D7
:10098000F1F700C0000081E00E9441048FE99FE080
:100990000197F1F700C0000086E00E9441048FEC4F
:1009A00097E00197F1F700C000000895CF93C82F9A
:1009B00041E060E082E00E94260640E061E082E0E3
:1009C0000E9426068C2F82958F700E940B048C2F1C
:1009D0008F70CF910C940B041F93CF93DF93EC0196
:1009E00010E0892B39F4DF91CF911F9108950E9477
:1009F000D6041F5FFE01E10FF11D80818111F7CF49
:100A0000F2CF882321F0605C813009F060E0862F0E
:100A100080680E9441048FEC97E00197F1F700C0D5
:100A2000000008958F929F92AF92BF92CF92DF9273
:100A3000EF92FF920F931F93CF93DF93CDB7DEB763
:100A40002A970FB6F894DEBF0FBECDBF61157105B2
:100A500081059105A9F480E32A960FB6F894DEBFCC
:100A60000FBECDBFDF91CF911F910F91FF90EF90FF
:100A7000DF90CF90BF90AF909F908F900C94D60452
:100A80006B017C01F7FE0AC08DE20E94D604662746
:100A90007727CB016C197D098E099F09D12C8E0116
:100AA0000F5F1F4F2AE0822E912CA12CB12CED2C30
:100AB000F12CE00EF11E6115710581059105B1F46F
:100AC0000E151F05F1F42A960FB6F894DEBF0FBE7F
:100AD000CDBFDF91CF911F910F91FF90EF90DF90ED
:100AE000CF90BF90AF909F908F900895A5019401F3
:100AF0000E94BC07605DF7016083B901CA01D3940D
:100B0000D6CFF70182917F010E94D604D9CF0F93EF
:100B10001F93CF93DF936830C8F48C01862F880F22
:100B2000880F880F80640E944104E801085F1F4F0E
:100B300089910E94D604C017D107D1F760E080E008
:100B4000DF91CF911F910F910C940105DF91CF910F
:100B50001F910F91089541E00C94D905413011F493
:100B60000C9426064423E1F30895413019F440E043
:100B70000C942606411102C041E0FACF08950C946E
:100B8000AA066FEF0C9416064A3058F4E42FF0E0F2
:100B9000EE57FF4F9081611101C09095692F0C9421
:100BA00063060895611103C06FEF0C94630660E063
:100BB000FCCF8430F8F46830E8F44130E1F421E00F
:100BC00030E001C0220F6A95EAF7823061F083308D
:100BD00071F0813021F08AB3282B2ABB089587B3A6
:100BE000282B27BB089584B3282B24BB089581B3F9
:100BF000282B21BB08954111FDCF21E030E001C039
:100C0000220F6A95EAF72095823051F0833059F02F
:100C1000813019F08AB32823E0CF87B32823E1CFAE
:100C200084B32823E2CF81B32823E3CF813041F07E
:100C300028F0823039F0833039F008956ABB089586
:100C400067BB089564BB089561BB08958430F8F4D0
:100C50006830E8F44130E1F421E030E001C0220FD7
:100C60006A95EAF7823061F0833071F0813021F0CB
:100C70008BB3282B2BBB089588B3282B28BB089552
:100C800085B3282B25BB089582B3282B22BB08955A
:100C90004111FDCF21E030E001C0220F6A95EAF753
:100CA0002095823051F0833059F0813019F08BB3A8
:100CB0002823E0CF88B32823E1CF85B32823E2CFD0
:100CC00082B32823E3CF813041F028F0823039F01D
:100CD000833039F008956BBB089568BB089565BBF8
:100CE000089562BB0895FA013097D9F0683038F45E
:100CF000813089F030F0823081F0833081F08FEFE5
:100D000008C089B390E002C0959587956A95E2F78F
:100D100081708083089586B3F5CF83B3F3CF80B31A
:100D2000F1CF8FEF809300000895FB01309759F0C9
:100D3000813051F030F0823049F0833049F08FEF4C
:100D400001C089B38083089586B3FCCF83B3FACF03
:100D500080B3F8CF8430E8F46830D8F421E030E094
:100D600001C0220F6A95EAF7823061F0833071F09A
:100D7000813021F08BB328272BBB089588B3282717
:100D800028BB089585B3282725BB089582B328275B
:100D900022BB0895813051F028F0823059F0833021
:100DA00069F008958BB380958BBB089588B38095C7
:100DB00088BB089585B3809585BB089582B38095DF
:100DC00082BB08958FB780688FBF08958FB78F77E4
:100DD0008FBF0895FC01892BF9F083B7877B92813F
:100DE000892B83BF83B78F7C9481892B83BF8285B6
:100DF0008CBF86819781019781F489B7816089BF13
:100E000080859185019761F489B7826089BF83B736
:100E1000887F9081892B83BF089589B78E7FEFCF1C
:100E200089B78D7FF3CF8CBF089582B7089582BFB5
:100E300008959093B7018093B60108959093B501FA
:100E40008093B40108951F920F920FB60F92112450
:100E50002F933F934F935F936F937F938F939F93C2
:100E6000AF93BF93EF93FF93E091B401F091B5017D
:100E7000309709F00995FF91EF91BF91AF919F9144
:100E80008F917F916F915F914F913F912F910F9033
:100E90000FBE0F901F9018951F920F920FB60F92D2
:100EA00011242F933F934F935F936F937F938F936F
:100EB0009F93AF93BF93EF93FF93E091B601F091AF
:100EC000B701309709F00995FF91EF91BF91AF916C
:100ED0009F918F917F916F915F914F913F912F9152
:100EE0000F900FBE0F901F9018950E942F020E9426
:100EF0005E030E9457040E9444010E945D000E940C
:100F0000E20642E350E060E070E084E691E00E9497
:100F10009F024CE251E060E070E085EF91E00E94BA
:100F20009F02C0E00E94D6020E940E028130D1F7DB
:100F3000C111F8CF42E350E060E070E084E790E058
:100F40000E949F0246E950E060E070E08FEE90E082
:100F50000E949F02C1E0E6CFDB018F939F930E9426
:100F6000DE07BF91AF91A29F800D911DA39F900DB1
:100F7000B29F900D11240895A1E21A2EAA1BBB1B4B
:100F8000FD010DC0AA1FBB1FEE1FFF1FA217B30755
:100F9000E407F50720F0A21BB30BE40BF50B661F6B
:100FA000771F881F991F1A9469F76095709580952F
:100FB00090959B01AC01BD01CF0108950E94E90706
:100FC000A59F900DB49F900DA49F800D911D11249D
:100FD0000895A29FB001B39FC001A39F700D811D12
:100FE0001124911DB29F700D811D1124911D089532
:040FF000F894FFCFA3
:100FF40001000000FFFF3738392F3435362A3132EB
:10100400332D43303D2B0405060701010101000186
:1010140002033F065B4F666D7D077F6F436C6F6312
:101024006B77697365204D6F766520200020202042
:101034002020202020202020202020202000416E5D
:1010440074692D4357204D6F766520202020004D74
:101054006F746F722053746F707065642020200069
:101064004C454420416E696D6174696F6E20202087
:1010740000312F322F3320746F2073746F7020204F
:101084002000456E7465722050617373776F7264CB
:101094003A2000416363657373204772616E74651F
:1010A40064202000424C4F434B4544202020202004
:1010B400202020200057726F6E672C2052657472B6
:0610C400793A2020200013
:00000001FF
