:100000000C942A000C9447000C94590D0C94470052
:100010000C941E140C9453140C9488110C94BD1160
:100020000C94F2110C9427120C944C0E0C94810E2B
:100030000C9447000C9447000C9447000C94470024
:100040000C94D1080C9447000C9447000C94470082
:100050000C94470011241FBECFE5D8E0DEBFCDBF12
:1000600010E0A0E6B0E0EAEEFBE202C005900D92DF
:10007000A437B107D9F720E0A4E7B0E001C01D9292
:10008000AA38B207E1F70E9484070C94F3150C9488
:100090000000CF93DF9300D00F92CDB7DEB78983F6
:1000A0006A834B8340E06A8189810E94FA088B81D0
:1000B000811531F441E06A8189810E943C0A0BC0BC
:1000C0008B81813019F08B81823029F440E06A8184
:1000D00089810E943C0A00000F900F900F90DF91E1
:1000E000CF910895CF93DF9300D000D0CDB7DEB786
:1000F0008A836B834C838FEF89838C81811531F0E8
:100100008C81813019F08C81823039F4CE010196D6
:10011000AC016B818A810E947D0B89810F900F90C9
:100120000F900F90DF91CF910895CF93DF9300D080
:10013000CDB7DEB789836A8341E06A8189810E94F5
:10014000FA0840E06A8189810E943C0A00000F9011
:100150000F90DF91CF910895CF93DF9300D0CDB76B
:10016000DEB789836A8341E06A8189810E943C0A03
:1001700000000F900F90DF91CF910895CF93DF9300
:1001800000D0CDB7DEB789836A8340E06A81898178
:100190000E943C0A00000F900F90DF91CF910895CC
:1001A000CF93DF93CDB7DEB70000DF91CF910895F5
:1001B000CF93DF93CDB7DEB70000DF91CF910895E5
:1001C0000F931F93CF93DF93CDB7DEB7C654D109FA
:1001D0000FB6F894DEBF0FBECDBF41E060E081E016
:1001E0000E94FA0841E061E081E00E94FA0841E0E3
:1001F00062E081E00E94FA086FEF83E00E94010A4A
:1002000080E090E0ACE0B2E489AF9AAFABAFBCAFB6
:1002100020E030E04AE755E469AD7AAD8BAD9CADA6
:100220000E945E15DC01CB019E01235C3F4FF9016A
:1002300080839183A283B38320E030E040E85FE3D2
:10024000CE01CD96FC0160817181828193810E94F3
:10025000D81481154CF4CE018F5B9F4F21E030E024
:10026000FC013183208368C020E03FEF4FE757E473
:10027000CE01CD96FC0160817181828193810E94C3
:10028000591581300CF447C020E030E040E251E4E1
:1002900069AD7AAD8BAD9CAD0E945E15DC01CB01E2
:1002A0008E010F5B1F4FBC01CD010E94DD14DC01EC
:1002B000CB01F8019183808325C0CE018D5B9F4FD8
:1002C00020E931E0FC0131832083CE018D5B9F4F1B
:1002D000FC01808191810197F1F79E012D5B3F4FD9
:1002E000F901918380830000CE018F5B9F4F9E01B7
:1002F0002F5B3F4FF9012081318121503109FC01F1
:1003000031832083CE018F5B9F4FFC0180819181DF
:10031000009799F62CC08E010F5B1F4FCE01CD9632
:10032000FC0160817181828193810E94DD14DC0176
:10033000CB01F80191838083CE018B5B9F4F9E019F
:100340002F5B3F4FF90120813181FC0131832083F4
:10035000CE018B5B9F4FFC01808191810197F1F76A
:100360009E012B5B3F4FF90191838083000080E366
:100370000E94A00380E090E0A0E8BFE38BA79CA7C9
:10038000ADA7BEA720E030E04AE755E46BA57CA509
:100390008DA59EA50E945E15DC01CB018FA798ABB1
:1003A000A9ABBAAB20E030E040E85FE36FA578A9E5
:1003B00089A99AA90E94D81481152CF481E090E0B3
:1003C0009CAB8BAB40C020E03FEF4FE757E46FA5FD
:1003D00078A989A99AA90E945915813054F120E081
:1003E00030E040E251E46BA57CA58DA59EA50E945E
:1003F0005E15DC01CB01BC01CD010E94DD14DC01E6
:10040000CB019CAB8BAB10C080E991E09EAB8DAB78
:100410008DA99EA90197F1F79EAB8DAB00008BA92A
:100420009CA901979CAB8BAB8BA99CA9009761F70A
:1004300015C06FA578A989A99AA90E94DD14DC01CD
:10044000CB019CAB8BAB8BA99CA998AF8FAB8FA931
:1004500098AD0197F1F798AF8FAB00008FE00E9445
:10046000A00380E090E0A0E8BFE38D8F9E8FAF8F68
:10047000B8A320E030E04AE755E46D8D7E8D8F8D86
:1004800098A10E945E15DC01CB0189A39AA3ABA3BE
:10049000BCA320E030E040E85FE369A17AA18BA132
:1004A0009CA10E94D81481152CF481E090E09EA3B9
:1004B0008DA340C020E03FEF4FE757E469A17AA148
:1004C0008BA19CA10E945915813054F120E030E0AD
:1004D00040E251E46D8D7E8D8F8D98A10E945E1556
:1004E000DC01CB01BC01CD010E94DD14DC01CB019C
:1004F0009EA38DA310C080E991E098A78FA38FA140
:1005000098A50197F1F798A78FA300008DA19EA150
:1005100001979EA38DA38DA19EA1009761F715C0A1
:1005200069A17AA18BA19CA10E94DD14DC01CB0101
:100530009EA38DA38DA19EA19AA789A789A59AA5FF
:100540000197F1F79AA789A7000081E00E94A00314
:1005500080E090E0A0E0B0E48F87988BA98BBA8B05
:1005600020E030E04AE755E46F85788989899A89E7
:100570000E945E15DC01CB018B8B9C8BAD8BBE8BFF
:1005800020E030E040E85FE36B897C898D899E89BB
:100590000E94D81481152CF481E090E0988F8F8B05
:1005A00040C020E03FEF4FE757E46B897C898D899D
:1005B0009E890E945915813054F120E030E040E2DC
:1005C00051E46F85788989899A890E945E15DC01DA
:1005D000CB01BC01CD010E94DD14DC01CB01988F61
:1005E0008F8B10C080E991E09A8F898F898D9A8DC9
:1005F0000197F1F79A8F898F00008F89988D019765
:10060000988F8F8B8F89988D009761F715C06B89B4
:100610007C898D899E890E94DD14DC01CB01988F35
:100620008F8B8F89988D9C8F8B8F8B8D9C8D019755
:10063000F1F79C8F8B8F000086E00E94A00380E082
:1006400090E0A0E8BFE389839A83AB83BC8320E07A
:1006500030E04AE755E469817A818B819C810E9470
:100660005E15DC01CB018D839E83AF83B88720E0CC
:1006700030E040E85FE36D817E818F8198850E9444
:10068000D81481152CF481E090E09A87898740C0C6
:1006900020E03FEF4FE757E46D817E818F819885A1
:1006A0000E945915813054F120E030E040E251E4DD
:1006B00069817A818B819C810E945E15DC01CB016E
:1006C000BC01CD010E94DD14DC01CB019A87898732
:1006D00010C080E991E09C878B878B859C85019772
:1006E000F1F79C878B87000089859A8501979A8707
:1006F000898789859A85009761F715C06D817E810C
:100700008F8198850E94DD14DC01CB019A8789874F
:1007100089859A859E878D878D859E850197F1F7BE
:100720009E878D8700000000CA5BDF4F0FB6F894EC
:10073000DEBF0FBECDBFDF91CF911F910F91089506
:10074000CF93DF930F92CDB7DEB7898340E060E0AF
:1007500081E00E943C0A40E061E081E00E943C0AA6
:10076000698183E00E94430B41E062E081E00E94E6
:100770003C0A40E062E081E00E943C0A00000F90E9
:10078000DF91CF910895CF93DF930F92CDB7DEB76E
:10079000898341E060E081E00E943C0A40E061E042
:1007A00081E00E943C0A698183E00E94430B41E0A2
:1007B00062E081E00E943C0A40E062E081E00E9449
:1007C0003C0A00000F90DF91CF910895CF93DF9303
:1007D00000D00F92CDB7DEB79B838A838A819B813D
:1007E0000097D9F019820EC08981882F90E02A8164
:1007F0003B81820F931FFC0180810E94C30389818A
:100800008F5F89838981882F90E02A813B81820FC5
:10081000931FFC018081811539F700000F900F9024
:100820000F90DF91CF910895CF93DF93CDB7DEB7CF
:1008300061970FB6F894DEBF0FBECDBF888B698B72
:1008400019828889882F90E0009721F081309105E6
:1008500021F007C08989898304C08989805C8983E4
:100860000000898180680E94A00380E090E0A0E8F9
:10087000BFE38A839B83AC83BD8320E030E04AE7FB
:1008800055E46A817B818C819D810E945E15DC012B
:10089000CB018E839F83A887B98720E030E040E8B2
:1008A0005FE36E817F81888599850E94D8148115C8
:1008B0002CF481E090E09B878A8740C020E03FEFE6
:1008C0004FE757E46E817F81888599850E9459158D
:1008D000813054F120E030E040E251E46A817B81D4
:1008E0008C819D810E945E15DC01CB01BC01CD0194
:1008F0000E94DD14DC01CB019B878A8710C080E950
:1009000091E09D878C878C859D850197F1F79D8768
:100910008C8700008A859B8501979B878A878A85BB
:100920009B85009761F715C06E817F8188859985C9
:100930000E94DD14DC01CB019B878A878A859B8519
:100940009F878E878E859F850197F1F79F878E877A
:100950000000000061960FB6F894DEBF0FBECDBF59
:10096000DF91CF9108950F931F93CF93DF93CDB76E
:10097000DEB760970FB6F894DEBF0FBECDBF6D87B0
:100980007E878F87988B2AE0CE010396FC01322F59
:1009900011923A95E9F719821A828D859E85AF8565
:1009A000B8890097A105B10521F480E30E94C30333
:1009B0006CC08D859E85AF85B8890097A105B1056E
:1009C0000CF047C08DE20E94C3038D859E85AF85E4
:1009D000B889B095A095909581959F4FAF4FBF4F27
:1009E0008D879E87AF87B88B34C08D859E85AF85F8
:1009F000B8890AE010E020E030E0BC01CD01A90197
:100A000098010E949714DC01CB01282F8981882F3F
:100A100090E040E3420F9E012D5F3F4F820F931FF6
:100A2000FC0140838D859E85AF85B8890AE010E082
:100A300020E030E0BC01CD01A90198010E9497148B
:100A4000DA01C9018D879E87AF87B88B89818F5F57
:100A500089838D859E85AF85B8890097A105B105ED
:100A600021F689818A838A81882F90E001979E01EF
:100A70002D5F3F4F820F931FFC0180810E94C303B3
:100A80008A8181508A830000EECF60960FB6F89479
:100A9000DEBF0FBECDBFDF91CF911F910F910895A3
:100AA000CF93DF9300D000D00F92CDB7DEB79C83F9
:100AB0008B836D838D81883008F58D81880F880F39
:100AC000880F8A838A8180640E94A0031982198218
:100AD0000EC08981882F90E02B813C81820F931F6B
:100AE000FC0180810E94C30389818F5F8983898192
:100AF000883078F360E080E00E94140400000F90DA
:100B00000F900F900F900F90DF91CF910895CF939A
:100B1000DF9300D0CDB7DEB789836A8341E06A8175
:100B200089810E94FA0800000F900F90DF91CF9109
:100B30000895CF93DF9300D00F92CDB7DEB78983AE
:100B40006A834B838B81813031F441E06A818981F2
:100B50000E943C0A08C08B81811529F440E06A811B
:100B600089810E943C0A00000F900F900F90DF9146
:100B7000CF910895CF93DF9300D00F92CDB7DEB71A
:100B800089836A834B838B81813031F440E06A81B1
:100B900089810E943C0A08C08B81811529F441E0BB
:100BA0006A8189810E943C0A00000F900F900F908B
:100BB000DF91CF910895CF93DF9300D0CDB7DEB70B
:100BC00089836A836A8189810E94260C00000F90C4
:100BD0000F90DF91CF910895CF93DF930F92CDB710
:100BE000DEB789836FEF89810E94010A00000F90B0
:100BF000DF91CF910895CF93DF9300D000D0CDB790
:100C0000DEB78A836B834C838C818A3090F48C812D
:100C1000882F90E0805A9F4FFC01808189838B81CF
:100C2000811519F489818095898369818A810E945F
:100C3000430B00000F900F900F900F90DF91CF911A
:100C40000895CF93DF9300D0CDB7DEB789836A8351
:100C50008A81811529F46FEF89810E94430B04C0BA
:100C600060E089810E94430B00000F900F90DF919C
:100C7000CF910895CF93DF9300D0CDB7DEB78091A9
:100C800074009091750001969093750080937400A4
:100C90004091740050917500CA019695879596957C
:100CA00087959C01A5ECB0E20E94881492958295EC
:100CB0008F7089279F70892764EF71E0869F90016C
:100CC000879F300D969F300D1124CA01821B930B14
:100CD0000097B9F490916B0081E0913009F480E0C5
:100CE00080936B0080916B00813029F480916A00C1
:100CF000882F90E002C080E090E0BC0180E00E947C
:100D0000C70F4091740050917500CA019695879560
:100D10009C01A5E7BAED0E9488140024880F991F52
:100D2000001C880F991F001C892F902D66E9689F71
:100D30009001699F300D1124CA01821B930B00970B
:100D4000A9F49091770081E0913009F480E08093DC
:100D5000770080917700813029F461E080E00E9483
:100D6000AC0004C061E080E00E94BE0040917400CD
:100D700050917500CA019695879596958795969599
:100D800087959C01A5ECB0E20E948814929582950B
:100D90008F7089279F70892768EE73E0869F900186
:100DA000879F300D969F300D1124CA01821B930B33
:100DB000009749F580917600882F90E0AC014F5F55
:100DC0005F4F9A01ADECBCEC0E9488149C013695F3
:100DD00027953695279536952795C901880F991F30
:100DE000880F991F820F931F880F991F9A01281B44
:100DF000390B822F8093760080917600482F61E036
:100E000081E00E94FB054091740050917500CA0179
:100E10009695879596958795969587959C01ABE7CE
:100E2000B4E10E9488149695879568EC689F9001BC
:100E3000699F300D1124CA01821B930B009709F0A2
:100E400051C040E060E082E00E947200898340E08F
:100E500061E082E00E9472008A8389818115E9F451
:100E600080916C008130C9F480916A008F3E30F42B
:100E700080916A008F5E80936A0003C08FEF809339
:100E80006A0080916B00813041F480916A00882F64
:100E900090E0BC0180E00E94C70F8A818115E1F4D7
:100EA00080916D008130C1F480916A00813130F011
:100EB00080916A00815180936A0002C010926A009A
:100EC00080916B00813041F480916A00882F90E01E
:100ED000BC0180E00E94C70F898180936C008A81E9
:100EE00080936D008091740090917500883B2BE099
:100EF000920720F0109275001092740000000F907D
:100F00000F90DF91CF910895CF93DF9300D000D061
:100F100000D0CDB7DEB761E080E00E94950081E0AF
:100F20000E94EC0580917600482F61E081E00E94EC
:100F3000FB0540E060E082E00E94490040E061E0A3
:100F400082E00E94490026E0EEE6F0E0CE01019644
:100F5000DC0101900D922A95E1F7CE0101960E94E5
:100F60008C0D8AE396E00E94390E41E065E083E053
:100F70000E94FA0862E085E00E94B60E62E080E01E
:100F80000E941B1080916A00882F90E0BC0180E0D5
:100F90000E94C70F0E946A0D0000FECFCF93DF931F
:100FA00000D0CDB7DEB79A83898389819A81009773
:100FB00009F481C087E290E0FC018081282F2F7323
:100FC00089819A81FC0180819181382F87E290E0AC
:100FD000232BFC01208387E290E0FC018081282FF5
:100FE0002F7D89819A81FC0182819381382F87E24C
:100FF00090E0232BFC01208386E290E0FC018081BD
:10100000282F287F89819A81FC0184819581382F3E
:1010100086E290E0232BFC01208389819A81FC01E8
:101020008681978180329105D9F486E290E0FC01B7
:10103000208186E290E02062FC01208380E590E040
:10104000FC018081282F2F7189819A81FC01808584
:101050009185382F80E590E0232BFC01208309C087
:1010600086E290E0FC01208186E290E02F7DFC0189
:10107000208386E290E0FC018081282F277F8981F0
:101080009A81FC0182859385382F86E290E0232B9C
:10109000FC01208386E290E0FC018081282F2F77DD
:1010A00089819A81FC0184859585382F86E290E0BC
:1010B000232BFC01208300000F900F90DF91CF9134
:1010C0000895CF93DF9300D00F92CDB7DEB78B8317
:1010D0001A82198287E290E0FC018081982F907E2D
:1010E0008B818F71292F282B87E290E0FC012083D0
:1010F00086E290E0FC01208186E290E02064FC0121
:101100002083000086E290E0FC01808186E290E08E
:10111000FC01208186E290E02061FC01208387E2CF
:1011200090E0FC01808184E290E0FC01808191816B
:101130009A83898389819A810F900F900F90DF9114
:10114000CF910895CF93DF930F92CDB7DEB7898308
:1011500087E290E0FC018081982F907E89818F71D9
:10116000292F282B87E290E0FC01208386E290E083
:10117000FC01208186E290E02064FC0120830000D5
:101180000F90DF91CF910895CF93DF9300D0CDB72B
:10119000DEB79A83898300000F900F90DF91CF9183
:1011A00008951F920F920FB60F9211248F939F9361
:1011B000EF93FF93CF93DF9300D0CDB7DEB71A82C2
:1011C000198287E290E0FC01808184E290E0FC01DA
:1011D000808191819A83898300000F900F90DF9125
:1011E000CF91FF91EF919F918F910F900FBE0F9034
:1011F0001F901895CF93DF9300D00F92CDB7DEB735
:1012000089836A834B838981843008F0F3C08A81A3
:10121000883008F0EFC08B81813009F070C089817F
:10122000882F90E08330910509F453C084309105F4
:101230000CF0DDC082309105B1F1833091050CF0E6
:10124000D6C0009721F081309105B9F0D0C08AE373
:1012500090E0FC018081482F8A81282F30E081E0D6
:1012600090E002C0880F991F2A95E2F7242F282BBF
:101270008AE390E0FC012083BDC087E390E0FC019D
:101280008081482F8A81282F30E081E090E002C0E1
:10129000880F991F2A95E2F7242F282B87E390E0E7
:1012A000FC012083A7C084E390E0FC018081482FEB
:1012B0008A81282F30E081E090E002C0880F991FDA
:1012C0002A95E2F7242F282B84E390E0FC01208369
:1012D00091C081E390E0FC018081482F8A81282F12
:1012E00030E081E090E002C0880F991F2A95E2F774
:1012F000242F282B81E390E0FC0120837BC08B818D
:10130000811509F077C08981882F90E0833091059D
:1013100009F456C0843091050CF06BC08230910501
:10132000C1F1833091050CF064C0009721F0813049
:101330009105C1F05EC08AE390E0FC018081482FF6
:101340008A81282F30E081E090E002C0880F991F49
:101350002A95E2F78095242F28238AE390E0FC0168
:10136000208348C087E390E0FC018081482F8A8178
:10137000282F30E081E090E002C0880F991F2A9565
:10138000E2F78095242F282387E390E0FC01208357
:1013900031C084E390E0FC018081482F8A81282FAE
:1013A00030E081E090E002C0880F991F2A95E2F7B3
:1013B0008095242F282384E390E0FC0120831AC029
:1013C00081E390E0FC018081482F8A81282F30E062
:1013D00081E090E002C0880F991F2A95E2F780957E
:1013E000242F282381E390E0FC01208303C0000028
:1013F00001C0000000000F900F900F90DF91CF917F
:101400000895CF93DF9300D0CDB7DEB789836A8389
:101410008981882F90E08330910509F1843091050E
:1014200024F582309105A9F083309105F4F40097FA
:1014300021F08130910539F018C08AE390E02A81CB
:10144000FC01208313C087E390E02A81FC01208304
:101450000DC084E390E02A81FC01208307C081E372
:1014600090E02A81FC01208301C0000000000F9061
:101470000F90DF91CF910895CF93DF9300D00F921B
:10148000CDB7DEB789836A834B838981843008F0C6
:10149000F3C08A81883008F0EFC08B81813009F079
:1014A00070C08981882F90E08330910509F453C082
:1014B000843091050CF0DDC082309105B1F18330AC
:1014C00091050CF0D6C0009721F081309105B9F05C
:1014D000D0C08BE390E0FC018081482F8A81282FC7
:1014E00030E081E090E002C0880F991F2A95E2F772
:1014F000242F282B8BE390E0FC012083BDC088E3E0
:1015000090E0FC018081482F8A81282F30E081E023
:1015100090E002C0880F991F2A95E2F7242F282B0C
:1015200088E390E0FC012083A7C085E390E0FC0104
:101530008081482F8A81282F30E081E090E002C02E
:10154000880F991F2A95E2F7242F282B85E390E036
:10155000FC01208391C082E390E0FC018081482F50
:101560008A81282F30E081E090E002C0880F991F27
:101570002A95E2F7242F282B82E390E0FC012083B8
:101580007BC08B81811509F077C08981882F90E01D
:101590008330910509F456C0843091050CF06BC07E
:1015A00082309105C1F1833091050CF064C0009741
:1015B00021F081309105C1F05EC08BE390E0FC0129
:1015C0008081482F8A81282F30E081E090E002C09E
:1015D000880F991F2A95E2F78095242F28238BE303
:1015E00090E0FC01208348C088E390E0FC0180810A
:1015F000482F8A81282F30E081E090E002C0880FD8
:10160000991F2A95E2F78095242F282388E390E0FC
:10161000FC01208331C085E390E0FC018081482FEC
:101620008A81282F30E081E090E002C0880F991F66
:101630002A95E2F78095242F282385E390E0FC018A
:1016400020831AC082E390E0FC018081482F8A81C8
:10165000282F30E081E090E002C0880F991F2A9582
:10166000E2F78095242F282382E390E0FC01208379
:1016700003C0000001C0000000000F900F900F9009
:10168000DF91CF910895CF93DF9300D0CDB7DEB730
:1016900089836A838981882F90E08330910509F1DD
:1016A0008430910524F582309105A9F083309105AD
:1016B000F4F4009721F08130910539F018C08BE3E4
:1016C00090E02A81FC01208312C088E390E02A8107
:1016D000FC0120830CC085E390E02A81FC0120837B
:1016E00006C082E390E02A81FC0120830000000014
:1016F0000F900F90DF91CF910895CF93DF9300D09B
:1017000000D0CDB7DEB789836A835C834B838B813E
:101710009C81009709F47CC08A81883008F072C0EF
:101720008981882F90E08330910509F450C084307E
:1017300091050CF061C082309105A1F183309105D3
:101740000CF05AC0009721F081309105B1F054C0DF
:1017500089E390E0FC018081882F90E02A81222F8C
:1017600030E002C0959587952A95E2F7282F2170E1
:101770008B819C81FC01208351C086E390E0FC01B9
:101780008081882F90E02A81222F30E002C0959539
:1017900087952A95E2F7282F21708B819C81FC0187
:1017A00020833CC083E390E0FC018081882F90E09F
:1017B0002A81222F30E002C0959587952A95E2F77D
:1017C000282F21708B819C81FC01208327C080E31E
:1017D00090E0FC018081882F90E02A81222F30E068
:1017E00002C0959587952A95E2F7282F21708B8165
:1017F0009C81FC01208312C08B819C812FEFFC0116
:1018000020830CC08B819C812FEFFC01208306C0BC
:101810008B819C812FEFFC01208300C000000F9082
:101820000F900F900F90DF91CF910895CF93DF939A
:1018300000D00F92CDB7DEB789837B836A83000027
:101840000F900F900F90DF91CF910895CF93DF937A
:1018500000D0CDB7DEB789836A838981843008F0F0
:1018600075C08A81883008F071C08981882F90E026
:101870008330910509F453C0843091050CF065C0A4
:1018800082309105B1F1833091050CF05EC0009774
:1018900021F081309105B9F058C08BE390E0FC0154
:1018A0008081482F8A81282F30E081E090E002C0BB
:1018B000880F991F2A95E2F7242F28278BE390E0C1
:1018C000FC01208343C088E390E0FC018081482F25
:1018D0008A81282F30E081E090E002C0880F991FB4
:1018E0002A95E2F7242F282788E390E0FC01208343
:1018F0002DC085E390E0FC018081482F8A81282F4C
:1019000030E081E090E002C0880F991F2A95E2F74D
:10191000242F282785E390E0FC01208317C082E371
:1019200090E0FC018081482F8A81282F30E081E0FF
:1019300090E002C0880F991F2A95E2F7242F2827EC
:1019400082E390E0FC01208301C0000000000F90C2
:101950000F90DF91CF910895CF93DF930F92CDB782
:10196000DEB7898300000F90DF91CF910895CF9368
:10197000DF9300D0CDB7DEB789836A838981811573
:1019800009F060C08A81811599F485E590E0FC0139
:10199000208185E590E02E7FFC01208385E590E0A5
:1019A000FC01208185E590E02D7FFC01208341C072
:1019B0008A81813099F485E590E0FC01208185E5FC
:1019C00090E02160FC01208385E590E0FC0120810E
:1019D00085E590E02D7FFC0120832BC08A81823039
:1019E00099F485E590E0FC01208185E590E02E7F6B
:1019F000FC01208385E590E0FC01208185E590E0F5
:101A00002260FC01208315C08A81833091F485E532
:101A100090E0FC01208185E590E02160FC012083BD
:101A200085E590E0FC01208185E590E02260FC01E5
:101A300020838BE590E0FC0120818BE590E0206421
:101A4000FC01208300000F900F90DF91CF9108954B
:101A5000CF93DF930F92CDB7DEB78983898181154C
:101A600051F48BE590E0FC0120818BE590E02F7B29
:101A7000FC01208319C08981813051F48BE590E00D
:101A8000FC0120818BE590E02F77FC0120830CC0C6
:101A90008981823049F48BE590E0FC0120818BE55F
:101AA00090E02F7DFC01208300000F90DF91CF910B
:101AB00008951F920F920FB60F921124CF93DF93C8
:101AC000CDB7DEB70000DF91CF910F900FBE0F9022
:101AD0001F901895CF93DF93CDB7DEB78FE590E0D9
:101AE000FC0120818FE590E02068FC01208300004C
:101AF000DF91CF910895CF93DF93CDB7DEB78FE518
:101B000090E0FC0120818FE590E02F77FC0120839D
:101B10000000DF91CF910895CF93DF9300D00F9213
:101B2000CDB7DEB79B838A838A819B81009709F4B6
:101B30005BC019828981282F277B8A819B81FC01C8
:101B40008181822B89838981282F2F7C8A819B81A7
:101B5000FC018281822B89838CE590E02A813B8184
:101B6000F9012581FC0120838A819B81FC0183810D
:101B7000813051F489E590E0FC01208189E590E015
:101B80002160FC01208309C089E590E0FC012081EF
:101B900089E590E02E7FFC0120838A819B81FC01F6
:101BA0008481813051F489E590E0FC01208189E550
:101BB00090E02260FC01208309C089E590E0FC01EF
:101BC000208189E590E02D7FFC0120838981282FE9
:101BD000287F8A819B81FC018081822B898383E518
:101BE00090E02981FC01208300000F900F900F905E
:101BF000DF91CF910895CF93DF930F92CDB7DEB7EA
:101C000089838CE590E02981FC01208300000F90FE
:101C1000DF91CF910895CF93DF93CDB7DEB782E503
:101C200090E0FC018081DF91CF910895CF93DF9305
:101C30000F92CDB7DEB7898382E590E02981FC0160
:101C4000208300000F90DF91CF910895CF93DF9311
:101C500000D0CDB7DEB79A83898389819A8190932A
:101C600079008093780000000F900F90DF91CF9162
:101C70000895CF93DF9300D0CDB7DEB79A838983E1
:101C800089819A8190937B0080937A0000000F9065
:101C90000F90DF91CF9108951F920F920FB60F9280
:101CA00011242F933F934F935F936F937F938F9361
:101CB0009F93AF93BF93EF93FF93CF93DF93CDB7F2
:101CC000DEB780917A0090917B00009731F080918F
:101CD0007A0090917B00FC0109950000DF91CF9183
:101CE000FF91EF91BF91AF919F918F917F916F91F4
:101CF0005F914F913F912F910F900FBE0F901F90CA
:101D000018951F920F920FB60F9211242F933F93A5
:101D10004F935F936F937F938F939F93AF93BF93F3
:101D2000EF93FF93CF93DF93CDB7DEB78091780029
:101D300090917900009731F080917800909179002E
:101D4000FC0109950000DF91CF91FF91EF91BF91C8
:101D5000AF919F918F917F916F915F914F913F9143
:101D60002F910F900FBE0F901F901895CF93DF9378
:101D700000D0CDB7DEB789836A838FE490E0FC01A1
:101D800020818FE490E02C7FFC0120838EE490E0A2
:101D9000FC0120818EE490E0277EFC0120838FE40B
:101DA00090E0FC018081982F89818370292F282B56
:101DB0008FE490E0FC0120838EE490E0FC018081C0
:101DC000982F898186958695880F880F880F88714E
:101DD000292F282B8EE490E0FC0120838A81883013
:101DE000B0F48EE490E0FC0120818EE490E0287F46
:101DF000FC0120838EE490E0FC0130818EE490E0D1
:101E00002A81232BFC0120838A81809384008CE427
:101E100090E0FC01118210828AE490E0FC011182C2
:101E2000108288E490E0FC011182108286E490E048
:101E3000FC011182108200000F900F90DF91CF9172
:101E40000895CF93DF93CDB7DEB78FE490E0FC0128
:101E500010828EE490E0FC0110828CE490E0FC01A2
:101E6000118210828AE490E0FC011182108288E4E1
:101E700090E0FC011182108286E490E0FC01118266
:101E8000108289E590E0FC01208189E590E02B7FBC
:101E9000FC01208389E590E0FC01208189E590E048
:101EA0002F7EFC01208389E590E0FC01208189E5FB
:101EB00090E0277FFC01208389E590E0FC012081F0
:101EC00089E590E02F7DFC012083109284000000C2
:101ED000DF91CF910895CF93DF93CDB7DEB78EE436
:101EE00090E0FC0120818EE490E0287FFC012083BB
:101EF0008EE490E0FC013081209184008EE490E03B
:101F0000232BFC0120830000DF91CF910895CF9314
:101F1000DF93CDB7DEB78EE490E0FC0120818EE444
:101F200090E0287FFC0120830000DF91CF9108958D
:101F3000CF93DF9300D0CDB7DEB79A8389838CE44B
:101F400090E029813A81FC013183208300000F90C9
:101F50000F90DF91CF910895CF93DF9300D0CDB74D
:101F6000DEB79A83898389819A81009751F08CE446
:101F700090E0FC012081318189819A81FC013183CB
:101F8000208300000F900F90DF91CF910895CF93A1
:101F9000DF9300D00F92CDB7DEB789837B836A834E
:101FA0008981811541F48AE490E02A813B81FC011A
:101FB000318320830AC08981813039F488E490E03C
:101FC0002A813B81FC013183208300000F900F9018
:101FD0000F90DF91CF910895CF93DF9300D00F92B0
:101FE000CDB7DEB789837B836A838A819B81009723
:101FF000D9F08981811559F48AE490E0FC012081AF
:1020000031818A819B81FC01318320830DC08981CC
:10201000813051F488E490E0FC01208131818A8193
:102020009B81FC013183208300000F900F900F9063
:10203000DF91CF910895CF93DF9300D0CDB7DEB776
:1020400089836A838A818430B8F589818115D1F4C6
:102050008FE490E0FC0120818FE490E02F73FC017D
:1020600020838FE490E0FC018081982F8A81829503
:10207000880F880F807C292F282B8FE490E0FC01AB
:1020800020831AC089818130B9F48FE490E0FC018B
:1020900020818FE490E02F7CFC0120838FE490E08E
:1020A000FC018081982F8A818295807F292F282B9F
:1020B0008FE490E0FC01208300000F900F90DF91EF
:1020C000CF910895CF93DF9300D0CDB7DEB79A8339
:1020D000898386E490E029813A81FC013183208361
:1020E00000000F900F90DF91CF910895CF93DF9371
:1020F00000D0CDB7DEB79A83898389819A81009712
:1021000051F086E490E0FC012081318189819A813F
:10211000FC013183208300000F900F90DF91CF915D
:102120000895CF93DF930F92CDB7DEB7898389816E
:10213000813051F48EE490E0FC0120818EE490E047
:102140002064FC01208309C08EE490E0FC01208122
:102150008EE490E02F7BFC01208300000F90DF9144
:10216000CF910895CF93DF930F92CDB7DEB78983D8
:102170008981811551F08EE490E0FC0120818EE48C
:1021800090E02068FC01208309C08EE490E0FC010F
:1021900020818EE490E02F77FC01208300000F90D7
:1021A000DF91CF910895CF93DF930F92CDB7DEB734
:1021B00089838981882F90E08330910569F184308B
:1021C0009105A4F582309105E9F08330910574F50D
:1021D000009721F08130910559F028C089E590E001
:1021E000FC01208189E590E02460FC0120831FC070
:1021F00089E590E0FC01208189E590E02061FC0107
:10220000208315C089E590E0FC01208189E590E0FC
:102210002860FC0120830BC089E590E0FC0120814F
:1022200089E590E02062FC01208301C000000000ED
:102230000F90DF91CF910895CF93DF930F92CDB799
:10224000DEB789838981882F90E08330910569F119
:1022500084309105A4F582309105E9F08330910531
:1022600074F5009721F08130910559F028C089E577
:1022700090E0FC01208189E590E02B7FFC01208328
:102280001FC089E590E0FC01208189E590E02F7E68
:10229000FC01208315C089E590E0FC01208189E5DF
:1022A00090E0277FFC0120830BC089E590E0FC01D2
:1022B000208189E590E02F7DFC01208301C0000092
:1022C00000000F90DF91CF910895CF93DF9300D05E
:1022D0000F92CDB7DEB79A8389836B8389819A8108
:1022E000009779F08B81843060F48B81882F90E0A7
:1022F000880F991F84589F4F29813A81FC013183AF
:10230000208300000F900F900F90DF91CF910895E0
:102310001F920F920FB60F9211242F933F934F935A
:102320005F936F937F938F939F93AF93BF93EF933D
:10233000FF93CF93DF93CDB7DEB78091820090916A
:102340008300009731F08091820090918300FC011E
:1023500009950000DF91CF91FF91EF91BF91AF916F
:102360009F918F917F916F915F914F913F912F91AD
:102370000F900FBE0F901F9018951F920F920FB6DF
:102380000F9211242F933F934F935F936F937F93FB
:102390008F939F93AF93BF93EF93FF93CF93DF936D
:1023A000CDB7DEB780917E0090917F00009731F02D
:1023B00080917E0090917F00FC0109950000DF91E3
:1023C000CF91FF91EF91BF91AF919F918F917F91AD
:1023D0006F915F914F913F912F910F900FBE0F9092
:1023E0001F9018951F920F920FB60F9211242F93E2
:1023F0003F934F935F936F937F938F939F93AF938D
:10240000BF93EF93FF93CF93DF93CDB7DEB7809168
:10241000800090918100009731F080918000909130
:102420008100FC0109950000DF91CF91FF91EF91B0
:10243000BF91AF919F918F917F916F915F914F91DC
:102440003F912F910F900FBE0F901F9018951F92E4
:102450000F920FB60F9211242F933F934F935F93D8
:102460006F937F938F939F93AF93BF93EF93FF935C
:10247000CF93DF93CDB7DEB780917C0090917D0044
:10248000009731F080917C0090917D00FC010995CE
:102490000000DF91CF91FF91EF91BF91AF919F919C
:1024A0008F917F916F915F914F913F912F910F90FD
:1024B0000FBE0F901F901895CF93DF9300D0CDB72C
:1024C000DEB789836A838981843008F051C085E44E
:1024D00090E0FC01208185E490E02F7BFC012083CB
:1024E00085E490E0FC01208185E490E0277FFC01F9
:1024F00020838981882F90E08330910519F1843001
:1025000091059CF58230910599F0833091056CF529
:10251000009769F18130910509F027C085E490E0CA
:10252000FC01208185E490E02064FC01208320C030
:1025300085E490E0FC01208185E490E02860FC01C6
:10254000208316C085E490E0FC01208185E490E0C2
:102550002064FC01208385E490E0FC01208185E477
:1025600090E02860FC01208303C0000001C000004F
:102570008A818830B0F485E490E0FC01208185E414
:1025800090E0287FFC01208385E490E0FC0130810D
:1025900085E490E02A81232BFC0120838A818093AB
:1025A000890084E490E0FC01108283E490E0FC0167
:1025B000108200000F900F90DF91CF910895CF937C
:1025C000DF93CDB7DEB785E490E0FC01108284E4B0
:1025D00090E0FC01108283E490E0FC01108289E528
:1025E00090E0FC01208189E590E02F7BFC012083B5
:1025F00089E590E0FC01208189E590E02F77FC01DE
:102600002083109289000000DF91CF910895CF932D
:10261000DF93CDB7DEB785E490E0FC01208185E44F
:1026200090E0287FFC01208385E490E0FC0130816C
:102630002091890085E490E0232BFC012083000099
:10264000DF91CF910895CF93DF93CDB7DEB785E4C7
:1026500090E0FC01208185E490E0287FFC0120834C
:102660000000DF91CF910895CF93DF930F92CDB704
:10267000DEB7898384E490E02981FC012083000097
:102680000F90DF91CF910895CF93DF9300D0CDB716
:10269000DEB79A83898389819A81009741F084E427
:1026A00090E0FC01208189819A81FC012083000057
:1026B0000F900F90DF91CF910895CF93DF930F92FA
:1026C000CDB7DEB7898383E490E02981FC012083C4
:1026D00000000F90DF91CF910895CF93DF9300D04A
:1026E000CDB7DEB79A83898389819A81009741F0BB
:1026F00083E490E0FC01208189819A81FC012083A0
:1027000000000F900F90DF91CF910895CF93DF934A
:102710000F92CDB7DEB7898389818430B8F485E420
:1027200090E0FC01208185E490E02F7CFC01208377
:1027300085E490E0FC018081982F89818295807FDB
:10274000292F282B85E490E0FC01208300000F90C6
:10275000DF91CF910895CF93DF930F92CDB7DEB77E
:1027600089838981882F90E0009721F0813091053D
:1027700059F014C089E590E0FC01208189E590E0E2
:102780002064FC0120830AC089E590E0FC012081DF
:1027900089E590E02068FC012083000000000F9094
:1027A000DF91CF910895CF93DF930F92CDB7DEB72E
:1027B00089838981882F90E0009721F081309105ED
:1027C00059F014C089E590E0FC01208189E590E092
:1027D0002F7BFC0120830AC089E590E0FC01208169
:1027E00089E590E02F77FC012083000000000F9026
:1027F000DF91CF910895CF93DF9300D00F92CDB7A3
:10280000DEB79A8389836B8389819A81009779F0F7
:102810008B81823060F48B81882F90E0880F991F24
:102820008B579F4F29813A81FC013183208300001F
:102830000F900F900F90DF91CF9108951F920F92FC
:102840000FB60F9211242F933F934F935F936F9383
:102850007F938F939F93AF93BF93EF93FF93CF9308
:10286000DF93CDB7DEB78091870090918800009705
:1028700031F08091870090918800FC01099500005B
:10288000DF91CF91FF91EF91BF91AF919F918F9188
:102890007F916F915F914F913F912F910F900FBE5C
:1028A0000F901F9018951F920F920FB60F92112440
:1028B0002F933F934F935F936F937F938F939F9348
:1028C000AF93BF93EF93FF93CF93DF93CDB7DEB773
:1028D0008091850090918600009731F0809185006D
:1028E00090918600FC0109950000DF91CF91FF9146
:1028F000EF91BF91AF919F918F917F916F915F9178
:102900004F913F912F910F900FBE0F901F901895F0
:10291000A29FB001B39FC001A39F700D811D112420
:10292000911DB29F700D811D1124911D0895052EDA
:1029300097FB1EF400940E94AE1457FD07D00E942E
:10294000B61407FC03D04EF40C94AE145095409589
:10295000309521953F4F4F4F5F4F0895909580954B
:10296000709561957F4F8F4F9F4F0895A1E21A2E6A
:10297000AA1BBB1BFD010DC0AA1FBB1FEE1FFF1F23
:10298000A217B307E407F50720F0A21BB30BE40B73
:10299000F50B661F771F881F991F1A9469F76095BA
:1029A0007095809590959B01AC01BD01CF01089574
:1029B0000E940C1508F481E008950E94381588F0F3
:1029C0009F5798F0B92F9927B751B0F0E1F0660FF3
:1029D000771F881F991F1AF0BA95C9F714C0B13034
:1029E00091F00E945215B1E008950C945215672F92
:1029F000782F8827B85F39F0B93FCCF38695779563
:102A00006795B395D9F73EF490958095709561954B
:102A10007F4F8F4F9F4F0895990F0008550FAA0BB6
:102A2000E0E8FEEF16161706E807F907C0F01216E1
:102A30001306E407F50798F0621B730B840B950BE4
:102A400039F40A2661F0232B242B252B21F4089539
:102A50000A2609F4A140A6958FEF811D811D0895D6
:102A600057FD9058440F551F59F05F3F71F047953F
:102A7000880F97FB991F61F09F3F79F08795089524
:102A8000121613061406551FF2CF4695F1DF08C043
:102A9000161617061806991FF1CF86957105610560
:102AA00008940895E894BB2766277727CB0197F908
:102AB00008950E940C1508F48FEF08950E94711577
:102AC0000C94E2150E94D41538F00E94DB1520F01A
:102AD000952311F00C94CB150C94D11511240C9462
:102AE00053150E94301570F3959FC1F3950F50E078
:102AF000551F629FF001729FBB27F00DB11D639FB0
:102B0000AA27F00DB11DAA1F649F6627B00DA11D55
:102B1000661F829F2227B00DA11D621F739FB00DFB
:102B2000A11D621F839FA00D611D221F749F33276B
:102B3000A00D611D231F849F600D211D822F762F04
:102B40006A2F11249F5750409AF0F1F088234AF0E1
:102B5000EE0FFF1FBB1F661F771F881F915050404D
:102B6000A9F79E3F510580F00C94CB150C9453159A
:102B70005F3FE4F3983ED4F3869577956795B795D4
:102B8000F795E7959F5FC1F7FE2B880F911D9695EE
:102B9000879597F9089597F99F6780E870E060E05E
:102BA00008959FEF80EC089500240A9416161706E6
:102BB00018060906089500240A941216130614062E
:102BC00005060895092E0394000C11F4882352F091
:102BD000BB0F40F4BF2B11F460FF04C06F5F7F4F49
:0A2BE0008F4F9F4F0895F894FFCF28
:102BEA003F065B4F666D7D077F6F80010101030819
:042BFA000000017C5A
:00000001FF
